[
    {
        "accountAddress": "0x044f7c17c62f566302de11b3ac0875b0292031e1",
        "name": "internal-1",
        "privateKey": "0xa45c3080d20e2cf8e227cbc0b97ae0001fa8850661f9c50c7331745841fd59ed",
        "unsignedTransaction": "0x00f08205398381729280847735940084ec5c163a94193399fa97ae9762a186e921582cedb0987d9470869068b375416980c0",
        "signedTransaction": "0x00f86f82232883817292808084ec5c163a94193399fa97ae9762a186e921582cedb0987d9470869068b375416980c001a08f59e6fa3b0d58e9029602919f38782be5af4941b7bce29816c4db6ac807f100a04517229e635a66d288888d1b82e16bca04eb67a181f6816c8d667d74cae41524",
        "to": "0x193399fa97ae9762a186e921582cedb0987d9470",
        "data": "0x",
        "gasLimit": "0xec5c163a",
        "gasPrice": "0x77359400",
        "value": "0x9068b3754169",
        "nonce": "0x817292",
        "type": 0,
        "from": "0x044f7c17c62f566302de11b3ac0875b0292031e1",
        "maxFeePerGas": "0x77359400",
        "chainId": 1337
    },
    {
        "accountAddress": "0x044f7c17c62f566302de11b3ac0875b0292031e1",
        "name": "internal-2",
        "privateKey": "0xa45c3080d20e2cf8e227cbc0b97ae0001fa8850661f9c50c7331745841fd59ed",
        "unsignedTransaction": "0x00f582053905808477359400820b3e94193399fa97ae9762a186e921582cedb0987d94708890171b8ab4782e0788fc6cc974a62da8c1c0",
        "signedTransaction": "0x00f874822328058080820b3e94193399fa97ae9762a186e921582cedb0987d94708890171b8ab4782e0788fc6cc974a62da8c1c080a025157d98278e6d2488193e8f3dca80909bc0347bf33c164e6b191d36afe1003ca07d08aed4ca67de3845de4c3baa7247e1d1e894dc39de960a2ab5c93fed3ad03e",
        "to": "0x193399fa97ae9762a186e921582cedb0987d9470",
        "data": "0xfc6cc974a62da8c1",
        "gasLimit": "0x0b3e",
        "gasPrice": "0x77359400",
        "value": "0x90171b8ab4782e07",
        "nonce": "0x05",
        "type": 0,
        "from": "0x044f7c17c62f566302de11b3ac0875b0292031e1",
        "maxFeePerGas": "0x77359400",
        "chainId": 1337
    },
    {
        "accountAddress": "0x044f7c17c62f566302de11b3ac0875b0292031e1",
        "name": "internal-3",
        "privateKey": "0xa45c3080d20e2cf8e227cbc0b97ae0001fa8850661f9c50c7331745841fd59ed",
        "unsignedTransaction": "0x00f1820539018082520885cf8e45935c94193399fa97ae9762a186e921582cedb0987d9470899fd98698273e099fc4829c25c0",
        "signedTransaction": "0x00f87282232801808085cf8e45935c94193399fa97ae9762a186e921582cedb0987d9470899fd98698273e099fc4829c25c080a069e70fff848912a9ddfdae07a365888c717b7e77bc538c403a3bf05dd48b8b52a041f7113fb1bb9fb4bb04ce5de3bad61ca27c828591d48d9807951941fe95cd59",
        "to": "0x193399fa97ae9762a186e921582cedb0987d9470",
        "data": "0x9c25",
        "gasLimit": "0xcf8e45935c",
        "value": "0x9fd98698273e099fc4",
        "nonce": "0x01",
        "type": 0,
        "from": "0x044f7c17c62f566302de11b3ac0875b0292031e1",
        "maxFeePerGas": "0x5208",
        "chainId": 1337
    },
    {
        "accountAddress": "0x044f7c17c62f566302de11b3ac0875b0292031e1",
        "name": "internal-4",
        "privateKey": "0xa45c3080d20e2cf8e227cbc0b97ae0001fa8850661f9c50c7331745841fd59ed",
        "unsignedTransaction": "0x00f0820539218082520888e5700ae872e4d2ba94193399fa97ae9762a186e921582cedb0987d9470834ee5e184caefe23fc0",
        "signedTransaction": "0x00f87182232821808088e5700ae872e4d2ba94193399fa97ae9762a186e921582cedb0987d9470834ee5e184caefe23fc001a03b32814661fdce63ca343aeef7db5b749c414481f1703ab9c1a9fd6f4727315ea0371cd1356e2aaa72a4efeef42e851a63d9b951513289a368892150e87f6b3720",
        "to": "0x193399fa97ae9762a186e921582cedb0987d9470",
        "data": "0xcaefe23f",
        "gasLimit": "0xe5700ae872e4d2ba",
        "value": "0x4ee5e1",
        "nonce": "0x21",
        "type": 0,
        "from": "0x044f7c17c62f566302de11b3ac0875b0292031e1",
        "maxFeePerGas": "0x5208",
        "chainId": 1337
    },
    {
        "accountAddress": "0x044f7c17c62f566302de11b3ac0875b0292031e1",
        "name": "external-1",
        "privateKey": "0xa45c3080d20e2cf8e227cbc0b97ae0001fa8850661f9c50c7331745841fd59ed",
        "unsignedTransaction": "0x02f8608205398316642b8089973634e143700973f8899f0b9241e38c41bcfb94333f87cba94a5f121c3f8d7a4b4616e31f7859b4871cfeeea1dd8dbf8587b9c69edac0899f0b9241e38c41bcfb899f0b9241e38c41bcfb89973634e143700973f880c0",
        "signedTransaction": "0x02f87f8223288316642b8080899f0b9241e38c41bcfb94333f87cba94a5f121c3f8d7a4b4616e31f7859b4871cfeeea1dd8dbf8587b9c69edac080808080c001a0cbdbb6ad62495043a9ab7d6ec83da5233563e2ec8aa8b1db6052a166549702dda04e9ca0cfbbc0402b2beb1223dd0dd59a27590fbabfdb3bacfcc5e436071d761a",
        "to": "0x333f87cba94a5f121c3f8d7a4b4616e31f7859b4",
        "data": "0x87b9c69eda",
        "gasLimit": "0x9f0b9241e38c41bcfb",
        "value": "0x1cfeeea1dd8dbf",
        "nonce": "0x16642b",
        "type": 2,
        "from": "0x044f7c17c62f566302de11b3ac0875b0292031e1",
        "maxFeePerGas": "0x973634e143700973f8",
        "externalGasLimit": "0x9f0b9241e38c41bcfb",
        "externalGasPrice": "0x9f0b9241e38c41bcfb",
        "externalGasTip": "0x973634e143700973f8",
        "externalData": "0x",
        "chainId": 1337
    },
    {
        "accountAddress": "0x044f7c17c62f566302de11b3ac0875b0292031e1",
        "name": "external-2",
        "privateKey": "0xa45c3080d20e2cf8e227cbc0b97ae0001fa8850661f9c50c7331745841fd59ed",
        "unsignedTransaction": "0x02f7820539358087508fbf21cb6be685ca9a56191d94333f87cba94a5f121c3f8d7a4b4616e31f7859b4848c3f013783db15a5c080808080c0",
        "signedTransaction": "0x02f87382232835808085ca9a56191d94333f87cba94a5f121c3f8d7a4b4616e31f7859b4848c3f013783db15a5c080808080c080a053bd99e3c595bf6f31f3d7bbb275c066094472447c67be88f120a7de89eef15ea02bc4db1f1f91837355d98783b1fe8c48959c3da2e83498ab8171a86242400524",
        "to": "0x333f87cba94a5f121c3f8d7a4b4616e31f7859b4",
        "data": "0xdb15a5",
        "gasLimit": "0xca9a56191d",
        "value": "0x8c3f0137",
        "nonce": "0x35",
        "from": "0x044f7c17c62f566302de11b3ac0875b0292031e1",
        "type": 2,
        "maxFeePerGas": "0x508fbf21cb6be6",
        "chainId": 1337
    },
    {
        "accountAddress": "0x044f7c17c62f566302de11b3ac0875b0292031e1",
        "name": "external-3",
        "privateKey": "0xa45c3080d20e2cf8e227cbc0b97ae0001fa8850661f9c50c7331745841fd59ed",
        "unsignedTransaction": "0x02f842820539834c20ad8085cfffd5f288869c496d89efc794333f87cba94a5f121c3f8d7a4b4616e31f7859b489b8aea54f1ac69cbf5b87d12b06bff664d6c080808080c0",
        "signedTransaction": "0x02f880822328834c20ad8080869c496d89efc794333f87cba94a5f121c3f8d7a4b4616e31f7859b489b8aea54f1ac69cbf5b87d12b06bff664d6c080808080c001a0b79506827f4c81a3dfdbe6fa5f07bac0cab42c6161eaf1156853e4a61cb5bc00a054b5413f84d63dfe833c48ddca3990d3904fab215d73dc90eab8c6e563c51467",
        "to": "0x333f87cba94a5f121c3f8d7a4b4616e31f7859b4",
        "data": "0xd12b06bff664d6",
        "gasLimit": "0x9c496d89efc7",
        "value": "0xb8aea54f1ac69cbf5b",
        "nonce": "0x4c20ad",
        "from": "0x044f7c17c62f566302de11b3ac0875b0292031e1",
        "type": 2,
        "maxFeePerGas": "0xcfffd5f288",
        "chainId": 1337
    },
    {
        "accountAddress": "0x044f7c17c62f566302de11b3ac0875b0292031e1",
        "name": "external-4",
        "privateKey": "0xa45c3080d20e2cf8e227cbc0b97ae0001fa8850661f9c50c7331745841fd59ed",
        "unsignedTransaction": "0x02f78205390180883583f0764b3690675494333f87cba94a5f121c3f8d7a4b4616e31f7859b48795875b9f46806d84677c56c2c080808080c0",
        "signedTransaction": "0x02f8728223280180805494333f87cba94a5f121c3f8d7a4b4616e31f7859b48795875b9f46806d84677c56c2c080808080c080a06a8240139f1795f4407513527facc66c7db1776d38018369cf9dd8d09be8ac57a05b0c4599bfe4d108aad8f2c0b8af64938df9a616c00ed93157c6979b221c91b5",
        "to": "0x333f87cba94a5f121c3f8d7a4b4616e31f7859b4",
        "data": "0x677c56c2",
        "gasLimit": "0x54",
        "value": "0x95875b9f46806d",
        "nonce": "0x01",
        "from": "0x044f7c17c62f566302de11b3ac0875b0292031e1",
        "type": 2,
        "maxFeePerGas": "0x3583f0764b369067",
        "chainId": 1337
    }
]