[
 {
  "name": "eip1559-mask-111101000",
  "address": "0x2ffd96cea30dbf397104e3d0114b9a4f9c4b6060",
  "key": "0x5fa36bd452dec57f1c98ca25fd67bc793a4258af721c8547891705aa60af5783",
  "signed": "0x00f89f82232880428201438094123456789a123456789a123456789a123456789a82012380f838f794123456789a123456789a123456789a123456789ae1a00123456789abcdef0123456789abcdef0123456789abcdef0123456789abcdef01a0bf2627031ef7611c080357002ffc8875ba2cd63be0ad751cfbbc7db79028ae00a0093779e9ced7264953247299aaa1cc64b1d4f932a98e9185886aa7d592c1cd2f",
  "tx": {
   "type": 0,
   "maxFeePerGas": "0x143",
   "gasPrice": "0x143",
   "to": "0x123456789a123456789a123456789a123456789a",
   "value": "0x0123",
   "maxPriorityFeePerGas": "0x42",
   "chainId": 9000,
   "accessList": [
    {
     "address": "0x123456789a123456789a123456789a123456789a",
     "storageKeys": [
      "0x0123456789abcdef0123456789abcdef0123456789abcdef0123456789abcdef"
     ]
    }
   ]
  },
  "unsigned": "0x00f85c82232880428201438094123456789a123456789a123456789a123456789a82012380f838f794123456789a123456789a123456789a123456789ae1a00123456789abcdef0123456789abcdef0123456789abcdef0123456789abcdef"
 },
   {
    "name": "eip1559-mask-111101010",
    "address": "0x12f38036a2642211e1d52aacf5383d0ddc7d1d76",
    "key": "0x10adff9e29d6b4d79f380767be3e088f4ee9cf956b41076974454e56683b78d8",
    "signed": "0x00f89f7b804282014382520894123456789a123456789a123456789a123456789a82012380f838f794123456789a123456789a123456789a123456789ae1a00123456789abcdef0123456789abcdef0123456789abcdef0123456789abcdef80a0ff081eec41a2c9872de6d120937963eb40bf2203292b512e2d700045c959a0eca056bacd6ba76f8faec144671b965c0a9f2736d30423f285b9ac887cfdc3e40016",
    "tx": {
     "type": 0,
     "gasLimit": "0x5208",
     "maxFeePerGas": "0x143",
     "gasPrice": "0x143",
     "maxPriorityFeePerGas": "0x42",
     "to": "0x123456789a123456789a123456789a123456789a",
     "value": "0x0123",
     "chainId": 123,
     "accessList": [
      {
       "address": "0x123456789a123456789a123456789a123456789a",
       "storageKeys": [
        "0x0123456789abcdef0123456789abcdef0123456789abcdef0123456789abcdef"
       ]
      }
     ]
    },
    "unsigned": "0x00f85c7b804282014382520894123456789a123456789a123456789a123456789a82012380f838f794123456789a123456789a123456789a123456789ae1a00123456789abcdef0123456789abcdef0123456789abcdef0123456789abcdef"
   },
   {
    "name": "eip1559-mask-111111110",
    "address": "0x865ecd91340c7ed94333682c9fef165c85024f2a",
    "key": "0x89f8496f444e0bbb708eaad5e7ed1d71fd9c4d7977a39f7c6a6f1cf0aefd0a6d",
    "signed": "0x00f89f7b2a4282014382520894123456789a123456789a123456789a123456789a82012380f838f794123456789a123456789a123456789a123456789ae1a00123456789abcdef0123456789abcdef0123456789abcdef0123456789abcdef01a089939ad659f0cbcaad24b37ba3a36e89ca4512da65b3634c6c51553b1b3de9eca038ea2e68c405e6fb6f45024ada6ec59e18187c8e553fa884fdb936a0c993c73b",
    "tx": {
     "type": 0,
     "gasLimit": "0x5208",
     "maxPriorityFeePerGas": "0x42",
     "gasPrice": "0x143",
     "maxFeePerGas": "0x143",
     "nonce": 42,
     "to": "0x123456789a123456789a123456789a123456789a",
     "value": "0x0123",
     "chainId": 123,
     "accessList": [
      {
       "address": "0x123456789a123456789a123456789a123456789a",
       "storageKeys": [
        "0x0123456789abcdef0123456789abcdef0123456789abcdef0123456789abcdef"
       ]
      }
     ]
    },
    "unsigned": "0x00f85c7b2a4282014382520894123456789a123456789a123456789a123456789a82012380f838f794123456789a123456789a123456789a123456789ae1a00123456789abcdef0123456789abcdef0123456789abcdef0123456789abcdef"
   },
   {
    "name": "eip1559-mask-111111111", 
    "address": "0x26010366443b4b6477887f75cd0a76393a133596",
    "key": "0xeb268a0e84a26e2f49eafae61f7e24573f14a002b122997b0aeb405ac32eba3e",
    "signed": "0x00f8a37b2a4282014382520894123456789a123456789a123456789a123456789a8201238412345678f838f794123456789a123456789a123456789a123456789ae1a00123456789abcdef0123456789abcdef0123456789abcdef0123456789abcdef80a0976d32f5eef582de6916307242032e5e49c812741b3209e9b6fe812afec8cd82a048a5dc184c206fabbbbac5bf15699b6b616c66768e5e3b9bfe4eaca78c878da1",
    "tx": {
     "type": 0,
     "data": "0x12345678",
     "gasLimit": "0x5208",
     "maxPriorityFeePerGas": "0x42",
     "maxFeePerGas": "0x143",
     "nonce": 42,
     "to": "0x123456789a123456789a123456789a123456789a",
     "value": "0x0123",
     "chainId": 123,
     "accessList": [
      {
       "address": "0x123456789a123456789a123456789a123456789a",
       "storageKeys": [
        "0x0123456789abcdef0123456789abcdef0123456789abcdef0123456789abcdef"
       ]
      }
     ]
    },
    "unsigned": "0x00f8607b2a4282014382520894123456789a123456789a123456789a123456789a8201238412345678f838f794123456789a123456789a123456789a123456789ae1a00123456789abcdef0123456789abcdef0123456789abcdef0123456789abcdef"
   },
   {
    "name": "eip2930-random-204",
    "address": "0x5031fdd2a509152d1ead3b50c527db4e539b6bc0",
    "key": "0x115c4d1459631ca97b9ac690ab54f339fb481293afd6f00c4b0554bb0b74dba8",
    "signed": "0x02f8f5820100804282014382d04a94a47977f43b3d5d4145af33018c96203c640d651e839f43208677ac56dd8bbef838f7943c3745b6229b799be30ae6650a3bd7b4dacb38c4e1a03ff7f3aae10206e969ded7923b1304bc4a4c8fb59e9225ceb525e67df70ac62282808085570f6f15148201438677ac56dd8bbef838f7943c3745b6229b799be30ae6650a3bd7b4dacb38c4e1a03ff7f3aae10206e969ded7923b1304bc4a4c8fb59e9225ceb525e67df70ac62280a00338ee395365dd1fbc8bf58ff6a30a6ea6e5ceeec3fb3efbe3eccacc0fa7d2e4a05bfeb17324c700ae66ca441dc913d36d82cb36b4a4662aa9363277c2143f344e",
    "tx": {
     "type": 2,
     "data": "0x77ac56dd8bbe",
     "externalData": "0x77ac56dd8bbe",
     "gasLimit": "0xd04a",
     "maxPriorityFeePerGas": "0x42",
     "maxFeePerGas": "0x143",
     "externalGasLimit": "0x8080",
     "externalGasTip": "0x143",
     "externalGasPrice": "0x570f6f1514",
     "nonce": 0,
     "to": "0xa47977f43b3d5d4145af33018c96203c640d651e",
     "value": "0x9f4320",
     "chainId": 256,
     "v": 0,
     "r": "0xcbdbb6ad62495043a9ab7d6ec83da5233563e2ec8aa8b1db6052a166549702dd",
     "s": "0x4e9ca0cfbbc0402b2beb1223dd0dd59a27590fbabfdb3bacfcc5e436071d761a",
     "from": "0x5031fdd2a509152d1ead3b50c527db4e539b6bc0",
     "externalAccessList": [
        {
         "address": "0x3c3745b6229b799be30ae6650a3bd7b4dacb38c4",
         "storageKeys": [
          "0x3ff7f3aae10206e969ded7923b1304bc4a4c8fb59e9225ceb525e67df70ac622"
         ]
        }
       ],
     "accessList": [
      {
       "address": "0x3c3745b6229b799be30ae6650a3bd7b4dacb38c4",
       "storageKeys": [
        "0x3ff7f3aae10206e969ded7923b1304bc4a4c8fb59e9225ceb525e67df70ac622"
       ]
      }
     ]
    },
    "unsigned": "0x02f8b2820100804282014382d04a94a47977f43b3d5d4145af33018c96203c640d651e839f43208677ac56dd8bbef838f7943c3745b6229b799be30ae6650a3bd7b4dacb38c4e1a03ff7f3aae10206e969ded7923b1304bc4a4c8fb59e9225ceb525e67df70ac62282808085570f6f15148201438677ac56dd8bbef838f7943c3745b6229b799be30ae6650a3bd7b4dacb38c4e1a03ff7f3aae10206e969ded7923b1304bc4a4c8fb59e9225ceb525e67df70ac622"
   }
]
